:1000000035C000004DC000004BC0000049C00000DA
:1000100047C0000045C0000043C0000041C00000D0
:100020003FC000003DC000003BC0000039C00000E0
:1000300037C0000035C0000033C0000031C00000F0
:1000400045C00000B3C000002BC0000029C0000064
:1000500027C0000025C0000023C0000021C0000010
:100060001FC000001DC00000E600F30011241FBEE9
:10007000CFEFD8E0DEBFCDBF11E0A0E0B1E001C01E
:100080001D92A930B107E1F710E0C6E3D0E003C04C
:100090002197FE01DCD0C433D107D1F7B1D0DDC048
:1000A000AFCF80E090E005D080E090E000C0789491
:1000B000089580910201811108C081E085BB809381
:1000C0006E0092E095BD8093020108951F920F92F9
:1000D0000FB60F9211248F939F93AF93BF9380918C
:1000E000030190910401A0910501B091060180588F
:1000F0009F4FAF4FBF4F8093030190930401A09394
:100100000501B0930601BF91AF919F918F910F9020
:100110000FBE0F901F90189536B5809103019091F6
:100120000401A0910501B091060126B5231748F0FE
:100130003695BC01CD01632B20910201222389F069
:1001400008958091030190910401A0910501B0915F
:1001500006012695BC01CD01622B209102012111DF
:10016000EFCF60E070E0CB010895FC0110821182B6
:1001700084B18C6284B985B18C6285B98EE58CBD01
:1001800008950895FC01808181110BC08CB58F7793
:100190008CBD81E080832A9885EA8EBD8CB580680D
:1001A0008CBD80810895FC01808108951F920F927B
:1001B0000FB60F9211248F932A9A8CB58F778CBD2E
:1001C0008F910F900FBE0F901F901895E0E0F1E017
:1001D00085E2808382E081832998E081F0E082914A
:1001E000826080830895E7E0F1E01082118284B19B
:1001F0008C6284B985B18C6285B98EE58CBD089519
:1002000050DFC091000110910101D0E087E091E042
:10021000CADF882319F088818127888361E087E01D
:1002200091E0B0DF79DF6B017C0120E4C20E22E4B3
:10023000D21E2FE0E21EF11C6FDFDC01CB018C1916
:100240009D09AE09BF09B7FFE1CF0000F5CFEE0F62
:0E025000FF1F0590F491E02D0994F894FFCF64
:00000001FF
