:1000000034C000004CC000004AC0000048C00000DE
:1000100046C0000044C0000042C0000040C00000D4
:100020003EC000003CC000003AC0000038C00000E4
:1000300036C0000034C0000032C0000030C00000F4
:1000400044C000002CC000002AC0000028C00000EE
:1000500026C0000024C0000022C0000020C0000014
:100060001EC000001CC00000B40011241FBECFEF52
:10007000D8E0DEBFCDBF11E0A0E0B1E001C01D922D
:10008000A730B107E1F710E0C5E3D0E003C0219746
:10009000FE0195D0C433D107D1F773D096C0B0CF4D
:1000A00080E090E005D080E090E000C07894089572
:1000B00080910201811108C081E085BB80936E00B0
:1000C00092E095BD8093020108951F920F920FB6A2
:1000D0000F9211248F939F93AF93BF93809103014D
:1000E00090910401A0910501B091060180589F4FA5
:1000F000AF4FBF4F8093030190930401A09305017C
:10010000B0930601BF91AF919F918F910F900FBE59
:100110000F901F90189536B58091030190910401BE
:10012000A0910501B091060126B5231748F0369538
:10013000BC01CD01632B20910201222389F0089597
:100140008091030190910401A0910501B0910601F5
:100150002695BC01CD01622B209102012111EFCF28
:1001600060E070E0CB010895E0E0F1E085E280839B
:1001700082E081832998E081F0E08291826080832F
:1001800008958EDFC091000110910101D0E08881B7
:1001900081278883C0DF6B017C0120E4C20E22E44A
:1001A000D21E2FE0E21EF11CB6DFDC01CB018C1960
:1001B0009D09AE09BF09B7FFEACF0000F5CFEE0FEA
:0E01C000FF1F0590F491E02D0994F894FFCFF5
:00000001FF
